:100000000C94FE000C9424010C9424010C94240103
:100010000C9424010C9424010C9424010C942401CC
:100020000C9424010C9424010C9424010C942401BC
:100030000C9424010C9424010C9424010C942401AC
:100040000C9424010C9424010C9424010C9424019C
:100050000C9424010C9424010C9424010C9424018C
:100060000C9424010C9474020C94AB020C942401A3
:100070000C9424010C9424010C9424010C9424016C
:100080000C9424010C9424010C9424010C9424015C
:100090000C9424010C9424010C9424010C9424014C
:1000A0000C9424010C9424010C9424010C9424013C
:1000B0000C9424010C9424010C9424010C9424012C
:1000C0000C9424010C9424010C9424010C9424011C
:1000D0000C9424010C9424010C9424010C9424010C
:1000E0000C9424010C9424010C9424010C942401FC
:1000F0000C9424010C9424010C9424010C942401EC
:100100000C9424010C9424010C9424010C942401DB
:100110000C9424010C9424010C9424010C942401CB
:100120000C9424010C9424010C9424010C942401BB
:100130000C9424010C9424010C9424010C942401AB
:100140000C9424010C9424010C9424010C9424019B
:100150000C9424010C9424010C9424010C9424018B
:100160000C9424010C9424010C9424010C9424017B
:100170000C9424010C9424010C9424010C9424016B
:100180000C9424010C9424010C9424010C9424015B
:100190000C9424010C9424010C9424010C9424014B
:1001A0000C9424010C9424010C9424010C9424013B
:1001B0000C9424010C9424010C9424010C9424012B
:1001C0000C9424010C9424010C9424010C9424011B
:1001D0000C9424010C9424010C9424010C9424010B
:1001E0000C9424010C9424010C9424010C942401FB
:1001F0000C9424010C9424010C94240111241FBE9E
:10020000CFEFCDBFDFE3DEBF00E00CBF18BE19BEED
:100210001ABE1BBE10E2A0E0B0E2E6EDFCE000E09A
:100220000BBF02C007900D92AA30B107D9F71BBED1
:1002300021E2AAE0B0E201C01D92AC35B207E1F7BD
:100240000E94E0020C9469060C9400009C01FC01E1
:10025000EA5FFE4F9081295F3E4FF90120819F5F49
:100260009F7781E0921301C080E008951F93CF93A0
:10027000DF93EC01162F0E9426018823A1F0DE01F6
:10028000AA5FBE4F9C91FE01E90FF11DEC57FF4F95
:1002900010839F5F9F779C93E881F98193819C7F76
:1002A0002A81922B9383DF91CF911F910895FC01B6
:1002B000EC5FFE4F20818B5F9E4FFC01908181E0BF
:1002C000291301C080E00895FC01EB5FFE4FA0817F
:1002D000A80FB92FB11D14968C9190819F5F9F77C5
:1002E00090830895CF93DF93FC01DC01AC5FBE4F98
:1002F0009C919F5F9F77EF01CB5FDE4F8881C0812C
:10030000D1812881981749F08C91E80FF11D248341
:100310009C9381E0DF91CF91089580E0FBCFCF9354
:10032000DF93DC01A95FBE4F2C91FC01EA5FFE4F19
:100330003081FC01C081D181321306C08B818C7F5A
:100340008B83DF91CF910895EC91E80FF92FF11D88
:10035000EC57FF4F808188838C918F5F8F778C93D0
:10036000F0CFFC016083718342835383EB5FFE4FC8
:10037000108231971082339610828A5F9E4FFC0163
:1003800010820895FC016283738308951F93CF93B5
:10039000DF93EC01162FCE010E9426018823D9F3AA
:1003A000612FCE01DF91CF911F910C943601FF9206
:1003B0000F931F93CF93DF93EC01F52E8B01642FE6
:1003C0000E94C6016F2DCE010E94C601602FCE0192
:1003D0000E94C601612FCE01DF91CF911F910F9135
:1003E000FF900C94C601FF920F931F93CF93DF935E
:1003F000EC01F52E8B01642F0E94C6016F2DCE01FA
:100400000E94C601602FCE010E94C601612FCE015D
:10041000DF91CF911F910F91FF900C94C601FC01C9
:1004200060817181828193810895FC016081718175
:10043000828193810895FC018081918108950F93B9
:100440001F93CF93DF938C01D62FC0E0F801EC0F00
:10045000F11D608184E590E20E94C601CF5FDC1748
:10046000A8F7DF91CF911F910F9108959091582196
:10047000809159219817E9F084E590E20E94640187
:100480006091102070911120FB01EE5EFF4D808382
:100490008A3049F482E190E20E941F0210921020FB
:1004A0001092112008956F5F7F4F6093102070931A
:1004B00011200895CF93DF93CDB7DEB79E01265F5D
:1004C0003F4F4885598560E270E08E819F810E9490
:1004D0009503DF91CF910895E0E0F8E082AF93AF0C
:1004E000848581E0848708951F920F920FB60F9242
:1004F000112408B60F9218BE09B60F9219BE0BB69A
:100500000F921BBE2F933F934F935F936F937F93F5
:100510008F939F93AF93BF93EF93FF9384E590E204
:100520000E9472010E943602FF91EF91BF91AF913C
:100530009F918F917F916F915F914F913F912F91FB
:100540000F900BBE0F9009BE0F9008BE0F900FBE0C
:100550000F901F9018951F920F920FB60F921124B3
:1005600008B60F9218BE09B60F9219BE0BB60F92BD
:100570001BBE2F933F934F935F936F937F938F9304
:100580009F93AF93BF93EF93FF9384E590E20E9414
:100590008F01FF91EF91BF91AF919F918F917F91CB
:1005A0006F915F914F913F912F910F900BBE0F90E4
:1005B00009BE0F9008BE0F900FBE0F901F901895A8
:1005C00082E0809350008091510081FFFCCF88ED44
:1005D00084BF81E080934000F89485E080934300DD
:1005E0008091000481608093000482E08093410642
:1005F00088E0809345068093410684E0809342061C
:1006000080EA98E0809354209093552081E090E018
:100610008093562090935720109259211092582180
:1006200010925B2110925A2183E08093A50880915B
:10063000A3088F7C80618093A30883E88093A60839
:1006400080ED8093A7088091A40880618093A4081E
:100650008091A40888608093A408809140068260FD
:100660008093400680E094E08093260890932708CA
:100670008091010883608093010880910108806265
:10068000809301088091000882608093000880E0D8
:1006900092E00E946C028091A20081608093A2008F
:1006A000789400E010E2C3E3D0E220910E20309174
:1006B0000F208091080490910904821B930B8536CA
:1006C0009105B8F380910A2090910B20A0910C2005
:1006D000B0910D20AC01BD014F5F5F4F6F4F7F4F59
:1006E00040930A2050930B2060930C2070930D20B0
:1006F000BF93AF939F938F931F930F93DF93CF93EA
:100700000E945A0260E283E390E20E941F028091FD
:1007100008049091090480930E2090930F208DB7C8
:100720009EB708968DBF9EBFC0CF0F931F93CF93E8
:10073000DF93CDB7DEB72E97CDBFDEBF8C01FA01B8
:1007400086E08C8309831A8377FF02C060E070E83B
:10075000615071096D837E83A901BF01CE010196AD
:100760000E94C8034D815E8157FD0AC02F813885E4
:10077000421753070CF49A01020F131FF80110825D
:100780002E96CDBFDEBFDF91CF911F910F910895BF
:100790002F923F924F925F926F927F928F929F9291
:1007A000AF92BF92CF92DF92EF92FF920F931F937F
:1007B000CF93DF93CDB7DEB72B97CDBFDEBF7C01E4
:1007C0003B018A01FC0116821782838181FFDAC115
:1007D000CE0101965C01F7019381F30193FD8591B0
:1007E00093FF81913F01882309F453C1853239F485
:1007F00093FD859193FF81913F01853229F4B701E3
:1008000090E00E94DB05E7CF912C212C312CFFE1F9
:10081000F31538F08B3211F190F4803209F1833204
:1008200029F137FC3CC020ED280F2A3050F536FE68
:1008300020C08AE0989E200D1124922E06C08D3291
:1008400091F0803371F7689430F8F30193FD85914E
:1008500093FF81913F018111DACF21C0689431F873
:10086000689432F8F2CF689433F8EFCF689434F894
:10087000ECCFEAE02E9E200D1124222E689435F84C
:10088000E4CF8E3229F436FC04C1689436F8DDCF0B
:100890008C3619F4689437F8D8CF8836B1F2982F8F
:1008A0009F7D95549330E0F08336A1F18337C1F1F9
:1008B000833509F063C02801F2E04F0E511CF801A6
:1008C000C080D180692D70E036FC02C06FEF7FEFF1
:1008D000C6010E94C5054C01689437F882010AC020
:1008E0000C5F1F4FFFE3F98388248394912C6501EB
:1008F000E89437F833FE2DC0522C8114910471F521
:10090000552009F468CFB70180E290E00E94DB0532
:100910005A94F6CFF801808189830E5F1F4FE4CF90
:100920002801F2E04F0E511CF801C080D180692DE2
:1009300070E036FC02C06FEF7FEFC6010E94D00569
:100940004C018201D5CFB70180E290E00E94DB0527
:100950002A942814190409F0B0F7CECFF60137FC19
:10096000859137FE81916F01B70190E00E94DB0510
:1009700051105A94F1E08F1A9108BFCF843619F0C4
:10098000893609F077C0F80137FE6BC0608171814C
:10099000828193810C5F1F4FF32DFF763F2E97FFCF
:1009A00009C090958095709561957F4F8F4F9F4FAF
:1009B000689437F82AE030E0A5010E940B06C82EA3
:1009C000CA188C2C432C36FE0CC0E89440F8C9148D
:1009D00040F434FE05C032FC03C0F32DFE7E4F2EE2
:1009E000892C44FEA7C0FE01EC0DF11D80818033EF
:1009F00009F099C0242D297E422E842D8870582E0E
:100A000043FCA7C040FEA1C09C2C821418F42C0CFF
:100A1000922C981844FEA3C0B70180E390E00E9496
:100A2000DB0542FE09C088E790E041FE02C088E590
:100A300090E0B7010E94DB05C91408F49CC0CA9479
:100A4000D12C9FEFC91AD90ACA0CDB1CF60182917E
:100A50006F01B70190E00E94DB05AC14BD04B1F753
:100A60004FCF60817181072E000C880B990B0E5FB0
:100A70001F4F92CFD32CE894D4F82AE030E085378A
:100A8000C9F1232D297FD22E8F3691F1D8F48835E4
:100A900039F1F701868197812B96CDBFDEBFDF91BB
:100AA000CF911F910F91FF90EF90DF90CF90BF906B
:100AB000AF909F908F907F906F905F904F903F90FE
:100AC0002F900895803749F0883719F7D4FE02C077
:100AD0006894D2F820E130E00DC06894D4F8F6CFE5
:100AE00034FE03C0822F8660D82E20E132E002C09F
:100AF00028E030E0F801D7FE0FC06081718182816B
:100B000093810C5F1F4FA5010E940B06C82ECA18C7
:100B10003D2CE89437F855CF6081718190E080E0FA
:100B20000E5F1F4FF0CF42FC02C0839466CF8394C8
:100B3000839463CF842D867809F45FCFF6CFB70115
:100B400080E290E00E94DB0583948214C0F3512C74
:100B500061CF522C5818821408F45CCFF8CF842D42
:100B6000867809F469CF8BE241FE80E247FC8DE292
:100B7000B70190E05FCFB70180E390E00E94DB0512
:100B80009A945ACF8FEF9FEF87CFFC010590615069
:100B900070400110D8F7809590958E0F9F1F089593
:100BA000FC016150704001900110D8F7809590953C
:100BB0008E0F9F1F08950F931F93CF93DF93182FCE
:100BC000092FEB018B8181FD09C01FEF0FEF812FF2
:100BD000902FDF91CF911F910F91089582FF14C044
:100BE0002E813F818C819D81281739073CF4E88153
:100BF000F981CF0101968883998310838E819F812B
:100C000001968E839F83E3CFE885F985812F19951F
:100C1000892BA1F3DACFFA01AA27283051F120312C
:100C200081F1E8946F936E7F6E5F7F4F8F4F9F4F80
:100C3000AF4FB1E03ED0B4E03CD0670F781F891FC2
:100C40009A1FA11D680F791F8A1F911DA11D6A0F90
:100C5000711D811D911DA11D20D009F468943F9143
:100C60002AE0269F11243019305D3193DEF6CF0142
:100C70000895462F4770405D4193B3E00FD0C9F708
:100C8000F6CF462F4F70405D4A3318F0495D31FD75
:100C90004052419302D0A9F7EACFB4E0A6959795C8
:100CA000879577956795BA95C9F70097610571059E
:100CB00008959B01AC010A2E0694579547953795E8
:100CC0002795BA95C9F7620F731F841F951FA01D42
:060CD0000895F894FFCF27
:0A0CD600636F756E743D25640A001B
:00000001FF
